:020000040000FA
:0400000013EF00F00A
:06000800118215EF00F06B
:100018001180E0CF07F007C0E0FF119010001FEF3C
:1000280002F0F0A01AEF00F01CEF00F048EF00F02B
:10003800C0EC01F00C6E0C04D8A425EF00F027EFFB
:1000480000F048EF00F0829883B42DEF00F02FEF16
:1000580000F036EF00F083A634EF00F036EF00F042
:1000680045EF00F01A0E056E5E0E046E6E0EE82E59
:10007800FED7042EFCD7052EFAD700F000F08394A3
:1000880083968286809CF090F0A24DEF00F04FEFAF
:1000980000F064EF00F090EC01F0102A9EA857EFF2
:1000A80000F059EF00F052EF00F0330EAD6E9EA84D
:1000B80060EF00F062EF00F05BEF00F0F092D58E99
:1000C800F2A269EF00F06BEF00F071EF00F00F2A79
:1000D800F0EC01F0310EAD6EF2929EAA76EF00F0D0
:1000E80078EF00F07CEF00F0010E0E6EAECF0DF051
:1000F800F2A481EF00F083EF00F0BFEF00F08298E8
:1001080083840B0E056E260E046E5E0EE82EFED757
:10011800042EFCD7052EFAD78394020E056E040E22
:10012800046EBA0EE82EFED7042EFCD7052EFAD799
:1001380000F000F083860B0E056E260E046E5E0E30
:10014800E82EFED7042EFCD7052EFAD78396020E8A
:10015800056E040E046EBA0EE82EFED7042EFCD7E8
:10016800052EFAD700F000F0D59EF294010ED76E56
:10017800EA0ED66E8288119211002AEC02F02AEC5F
:1001880001F0838283948396809C828682980E04F1
:10019800D8A4D1EF00F0D3EF00F008EF01F09EA84B
:1001A800D8EF00F0DAEF00F0D3EF00F0320E0D18C0
:1001B800D8A4E1EF00F0E3EF00F0ECEF00F0829854
:1001C800839683948286809C300E0D6E04EF01F036
:1001D800350E0D18D8A4F3EF00F0F5EF00F0FCEFA2
:1001E80000F08288808C8296000E0D6E04EF01F07C
:1001F800000E106E000E0B6E000E0F6E0DC0ADFFE0
:10020800300E0D6E000E0E6E83A20DEF01F00FEF93
:1002180001F0CBEF00F082A614EF01F016EF01F029
:10022800CBEF00F060EC01F00C6E0C04D8A41FEFCB
:1002380001F021EF01F0CBEF00F08288808C8296EC
:10024800350EAD6ECBEF00F013EF00F07F987F9482
:100258007F9093809582938293849496929C9494B1
:10026800949895969594F288F086F088F292F0909A
:10027800F092F19CF19AF188D388D39AD38CD59CCB
:10028800D59AD596D580D582D594F28AF294C20EA5
:10029800D76EF70ED66EAC98AC84B896190EAF6EC2
:1002A800000EB06EAB8E948E948C9D8AF28CAB88C7
:1002B800AC8AD59EF28E1200000E096E000E83B233
:1002C800010E0A6E7CEF01F0092A0D0E0918D8A458
:1002D80070EF01F072EF01F075EF01F00A508FEF47
:1002E80001F0820E086EDE0EE82EFED7082EFCD72F
:1002F80083B281EF01F084EF01F0010E85EF01F088
:10030800000E0A18D8B48BEF01F08DEF01F068EFFA
:1003180001F060EF01F01200000E026E000E81B4D1
:10032800010E036EACEF01F0022A0D0E0218D8A4DC
:10033800A0EF01F0A2EF01F0A5EF01F00350BFEF2D
:1003480001F0820E016EDE0EE82EFED7012EFCD7DC
:1003580081B4B1EF01F0B4EF01F0010EB5EF01F097
:10036800000E0318D8B4BBEF01F0BDEF01F098EF11
:1003780001F090EF01F01200000E026E000E81B243
:10038800010E036EDCEF01F0022A0D0E0218D8A44C
:10039800D0EF01F0D2EF01F0D5EF01F00350EFEF0D
:1003A80001F0820E016EDE0EE82EFED7012EFCD77C
:1003B80081B2E1EF01F0E4EF01F0010EE5EF01F0A9
:1003C800000E0318D8B4EBEF01F0EDEF01F0C8EF21
:1003D80001F0C0EF01F01200000E036E000E81B0B4
:1003E800010E026E0BEF02F0032A0D0E0318D8A4BB
:1003F80000EF02F002EF02F004EF02F01EEF02F04D
:10040800820E016EDE0EE82EFED7012EFCD781B0DB
:1004180010EF02F013EF02F0010E14EF02F0000EDD
:100428000218D8B41AEF02F01CEF02F0F8EF01F04E
:10043800F0EF01F01200106A0F6A0E6A0D6A0C6A7A
:0E0448000B6A119011920001C1EF00F012003A
:020000040020DA
:08000000FFFFFFFFFFFFFFFF00
:020000040030CA
:0E000000FF081A1EFF8B81FF0FC00FE00F409C
:00000001FF
